{
  "contractName": "Blog",
  "abi": [
    {
      "constant": true,
      "inputs": [],
      "name": "nextId",
      "outputs": [
        {
          "internalType": "uint256",
          "name": "",
          "type": "uint256"
        }
      ],
      "payable": false,
      "stateMutability": "view",
      "type": "function"
    },
    {
      "constant": false,
      "inputs": [
        {
          "internalType": "string",
          "name": "body",
          "type": "string"
        },
        {
          "internalType": "string",
          "name": "author",
          "type": "string"
        }
      ],
      "name": "create",
      "outputs": [],
      "payable": false,
      "stateMutability": "nonpayable",
      "type": "function"
    },
    {
      "constant": true,
      "inputs": [
        {
          "internalType": "uint256",
          "name": "id",
          "type": "uint256"
        }
      ],
      "name": "read",
      "outputs": [
        {
          "internalType": "uint256",
          "name": "",
          "type": "uint256"
        },
        {
          "internalType": "string",
          "name": "",
          "type": "string"
        },
        {
          "internalType": "string",
          "name": "",
          "type": "string"
        }
      ],
      "payable": false,
      "stateMutability": "view",
      "type": "function"
    },
    {
      "constant": true,
      "inputs": [],
      "name": "list",
      "outputs": [
        {
          "components": [
            {
              "internalType": "uint256",
              "name": "id",
              "type": "uint256"
            },
            {
              "internalType": "string",
              "name": "body",
              "type": "string"
            },
            {
              "internalType": "string",
              "name": "author",
              "type": "string"
            }
          ],
          "internalType": "struct Blog.Post[]",
          "name": "",
          "type": "tuple[]"
        }
      ],
      "payable": false,
      "stateMutability": "view",
      "type": "function"
    }
  ],
  "bytecode": "0x60806040526001805534801561001457600080fd5b50610af0806100246000396000f3fe608060405234801561001057600080fd5b506004361061004c5760003560e01c80630f560cd714610051578063198e2b8a1461006f57806361b8ce8c1461008b578063ed2e5a97146100a9575b600080fd5b6100596100db565b60405161006691906108cd565b60405180910390f35b61008960048036036100849190810190610688565b610288565b005b61009361032f565b6040516100a0919061090f565b60405180910390f35b6100c360048036036100be91908101906106f4565b610335565b6040516100d29392919061092a565b60405180910390f35b60606000805480602002602001604051908101604052809291908181526020016000905b8282101561027f578382906000526020600020906003020160405180606001604052908160008201548152602001600182018054600181600116156101000203166002900480601f0160208091040260200160405190810160405280929190818152602001828054600181600116156101000203166002900480156101c55780601f1061019a576101008083540402835291602001916101c5565b820191906000526020600020905b8154815290600101906020018083116101a857829003601f168201915b50505050508152602001600282018054600181600116156101000203166002900480601f0160208091040260200160405190810160405280929190818152602001828054600181600116156101000203166002900480156102675780601f1061023c57610100808354040283529160200191610267565b820191906000526020600020905b81548152906001019060200180831161024a57829003601f168201915b505050505081525050815260200190600101906100ff565b50505050905090565b60006040518060600160405280600154815260200184815260200183815250908060018154018082558091505090600182039060005260206000209060030201600090919290919091506000820151816000015560208201518160010190805190602001906102f892919061057a565b50604082015181600201908051906020019061031592919061057a565b505050506001600081548092919060010191905055505050565b60015481565b60006060806000610345856104e8565b90506000818154811061035457fe5b9060005260206000209060030201600001546000828154811061037357fe5b90600052602060002090600302016001016000838154811061039157fe5b9060005260206000209060030201600201818054600181600116156101000203166002900480601f0160208091040260200160405190810160405280929190818152602001828054600181600116156101000203166002900480156104375780601f1061040c57610100808354040283529160200191610437565b820191906000526020600020905b81548152906001019060200180831161041a57829003601f168201915b50505050509150808054600181600116156101000203166002900480601f0160208091040260200160405190810160405280929190818152602001828054600181600116156101000203166002900480156104d35780601f106104a8576101008083540402835291602001916104d3565b820191906000526020600020905b8154815290600101906020018083116104b657829003601f168201915b50505050509050935093509350509193909250565b600080600090505b60008054905081101561053957826000828154811061050b57fe5b906000526020600020906003020160000154141561052c5780915050610575565b80806001019150506104f0565b506040517f08c379a000000000000000000000000000000000000000000000000000000000815260040161056c906108ef565b60405180910390fd5b919050565b828054600181600116156101000203166002900490600052602060002090601f016020900481019282601f106105bb57805160ff19168380011785556105e9565b828001600101855582156105e9579182015b828111156105e85782518255916020019190600101906105cd565b5b5090506105f691906105fa565b5090565b61061c91905b80821115610618576000816000905550600101610600565b5090565b90565b600082601f83011261063057600080fd5b813561064361063e8261099c565b61096f565b9150808252602083016020830185838301111561065f57600080fd5b61066a838284610a43565b50505092915050565b60008135905061068281610a96565b92915050565b6000806040838503121561069b57600080fd5b600083013567ffffffffffffffff8111156106b557600080fd5b6106c18582860161061f565b925050602083013567ffffffffffffffff8111156106de57600080fd5b6106ea8582860161061f565b9150509250929050565b60006020828403121561070657600080fd5b600061071484828501610673565b91505092915050565b60006107298383610858565b905092915050565b600061073c826109d8565b6107468185610a06565b935083602082028501610758856109c8565b8060005b858110156107945784840389528151610775858261071d565b9450610780836109f9565b925060208a0199505060018101905061075c565b50829750879550505050505092915050565b60006107b1826109ee565b6107bb8185610a28565b93506107cb818560208601610a52565b6107d481610a85565b840191505092915050565b60006107ea826109e3565b6107f48185610a17565b9350610804818560208601610a52565b61080d81610a85565b840191505092915050565b6000610825601483610a28565b91507f506f737420646f6573206e6f74206578697374210000000000000000000000006000830152602082019050919050565b600060608301600083015161087060008601826108af565b506020830151848203602086015261088882826107df565b915050604083015184820360408601526108a282826107df565b9150508091505092915050565b6108b881610a39565b82525050565b6108c781610a39565b82525050565b600060208201905081810360008301526108e78184610731565b905092915050565b6000602082019050818103600083015261090881610818565b9050919050565b600060208201905061092460008301846108be565b92915050565b600060608201905061093f60008301866108be565b818103602083015261095181856107a6565b9050818103604083015261096581846107a6565b9050949350505050565b6000604051905081810181811067ffffffffffffffff8211171561099257600080fd5b8060405250919050565b600067ffffffffffffffff8211156109b357600080fd5b601f19601f8301169050602081019050919050565b6000819050602082019050919050565b600081519050919050565b600081519050919050565b600081519050919050565b6000602082019050919050565b600082825260208201905092915050565b600082825260208201905092915050565b600082825260208201905092915050565b6000819050919050565b82818337600083830152505050565b60005b83811015610a70578082015181840152602081019050610a55565b83811115610a7f576000848401525b50505050565b6000601f19601f8301169050919050565b610a9f81610a39565b8114610aaa57600080fd5b5056fea365627a7a72315820a0d9d79b2efd19bd652273d573d9c44d5cfd9499426a2de455ea9d5149418a006c6578706572696d656e74616cf564736f6c63430005100040",
  "source": "// SPDX-License-Identifier: MIT\npragma solidity ^0.5.0;\npragma experimental ABIEncoderV2;\n\ncontract Blog {\n    struct Post {\n        uint256 id;\n        string body;\n        string author;\n    }\n    Post[] private posts;\n    uint256 public nextId = 1;\n\n    function create(string memory body, string memory author) public {\n        posts.push(Post(nextId, body, author));\n        nextId++;\n    }\n\n    function read(uint256 id)\n        public\n        view\n        returns (\n            uint256,\n            string memory,\n            string memory\n        )\n    {\n        uint256 i = find(id);\n        return (posts[i].id, posts[i].body, posts[i].author);\n    }\n\n    //   function destroy(uint id) public {\n    //     uint i = find(id);\n    //     delete users[i];\n    //   }\n\n    function find(uint256 id) internal view returns (uint256) {\n        for (uint256 i = 0; i < posts.length; i++) {\n            if (posts[i].id == id) {\n                return i;\n            }\n        }\n        revert(\"Post does not exist!\");\n    }\n\n    function list() public view returns (Post[] memory) {\n        return posts;\n    }\n}\n",
  "sourcePath": "/Users/non_thakon/Workspace/csag-smart-contract-talk/contracts/Blog.sol",
  "compiler": {
    "name": "solc",
    "version": "0.5.16+commit.9c3226ce.Emscripten.clang"
  },
  "schemaVersion": "3.2.4",
  "updatedAt": "2020-09-08T03:38:43.427Z",
  "networkType": "ethereum",
  "devdoc": {
    "methods": {}
  },
  "userdoc": {
    "methods": {}
  }
}