{
  "contractName": "Blog",
  "abi": [
    {
      "constant": true,
      "inputs": [],
      "name": "nextId",
      "outputs": [
        {
          "internalType": "uint256",
          "name": "",
          "type": "uint256"
        }
      ],
      "payable": false,
      "stateMutability": "view",
      "type": "function"
    },
    {
      "constant": false,
      "inputs": [
        {
          "internalType": "string",
          "name": "body",
          "type": "string"
        }
      ],
      "name": "create",
      "outputs": [],
      "payable": false,
      "stateMutability": "nonpayable",
      "type": "function"
    },
    {
      "constant": true,
      "inputs": [
        {
          "internalType": "uint256",
          "name": "id",
          "type": "uint256"
        }
      ],
      "name": "read",
      "outputs": [
        {
          "internalType": "uint256",
          "name": "",
          "type": "uint256"
        },
        {
          "internalType": "string",
          "name": "",
          "type": "string"
        },
        {
          "internalType": "string",
          "name": "",
          "type": "string"
        }
      ],
      "payable": false,
      "stateMutability": "view",
      "type": "function"
    },
    {
      "constant": true,
      "inputs": [],
      "name": "list",
      "outputs": [
        {
          "components": [
            {
              "internalType": "uint256",
              "name": "id",
              "type": "uint256"
            },
            {
              "internalType": "string",
              "name": "body",
              "type": "string"
            },
            {
              "internalType": "string",
              "name": "author",
              "type": "string"
            }
          ],
          "internalType": "struct Blog.Post[]",
          "name": "",
          "type": "tuple[]"
        }
      ],
      "payable": false,
      "stateMutability": "view",
      "type": "function"
    }
  ],
  "bytecode": "0x60806040526001805534801561001457600080fd5b50610af9806100246000396000f3fe608060405234801561001057600080fd5b506004361061004c5760003560e01c80630f560cd71461005157806361b8ce8c1461006f578063b6a46b3b1461008d578063ed2e5a97146100a9575b600080fd5b6100596100db565b60405161006691906108d6565b60405180910390f35b610077610288565b6040516100849190610918565b60405180910390f35b6100a760048036036100a291908101906106bc565b61028e565b005b6100c360048036036100be91908101906106fd565b610369565b6040516100d293929190610933565b60405180910390f35b60606000805480602002602001604051908101604052809291908181526020016000905b8282101561027f578382906000526020600020906003020160405180606001604052908160008201548152602001600182018054600181600116156101000203166002900480601f0160208091040260200160405190810160405280929190818152602001828054600181600116156101000203166002900480156101c55780601f1061019a576101008083540402835291602001916101c5565b820191906000526020600020905b8154815290600101906020018083116101a857829003601f168201915b50505050508152602001600282018054600181600116156101000203166002900480601f0160208091040260200160405190810160405280929190818152602001828054600181600116156101000203166002900480156102675780601f1061023c57610100808354040283529160200191610267565b820191906000526020600020905b81548152906001019060200180831161024a57829003601f168201915b505050505081525050815260200190600101906100ff565b50505050905090565b60015481565b6000604051806060016040528060015481526020018381526020016040518060400160405280600481526020017f7465737400000000000000000000000000000000000000000000000000000000815250815250908060018154018082558091505090600182039060005260206000209060030201600090919290919091506000820151816000015560208201518160010190805190602001906103339291906105ae565b5060408201518160020190805190602001906103509291906105ae565b5050505060016000815480929190600101919050555050565b600060608060006103798561051c565b90506000818154811061038857fe5b906000526020600020906003020160000154600082815481106103a757fe5b9060005260206000209060030201600101600083815481106103c557fe5b9060005260206000209060030201600201818054600181600116156101000203166002900480601f01602080910402602001604051908101604052809291908181526020018280546001816001161561010002031660029004801561046b5780601f106104405761010080835404028352916020019161046b565b820191906000526020600020905b81548152906001019060200180831161044e57829003601f168201915b50505050509150808054600181600116156101000203166002900480601f0160208091040260200160405190810160405280929190818152602001828054600181600116156101000203166002900480156105075780601f106104dc57610100808354040283529160200191610507565b820191906000526020600020905b8154815290600101906020018083116104ea57829003601f168201915b50505050509050935093509350509193909250565b600080600090505b60008054905081101561056d57826000828154811061053f57fe5b906000526020600020906003020160000154141561056057809150506105a9565b8080600101915050610524565b506040517f08c379a00000000000000000000000000000000000000000000000000000000081526004016105a0906108f8565b60405180910390fd5b919050565b828054600181600116156101000203166002900490600052602060002090601f016020900481019282601f106105ef57805160ff191683800117855561061d565b8280016001018555821561061d579182015b8281111561061c578251825591602001919060010190610601565b5b50905061062a919061062e565b5090565b61065091905b8082111561064c576000816000905550600101610634565b5090565b90565b600082601f83011261066457600080fd5b8135610677610672826109a5565b610978565b9150808252602083016020830185838301111561069357600080fd5b61069e838284610a4c565b50505092915050565b6000813590506106b681610a9f565b92915050565b6000602082840312156106ce57600080fd5b600082013567ffffffffffffffff8111156106e857600080fd5b6106f484828501610653565b91505092915050565b60006020828403121561070f57600080fd5b600061071d848285016106a7565b91505092915050565b60006107328383610861565b905092915050565b6000610745826109e1565b61074f8185610a0f565b935083602082028501610761856109d1565b8060005b8581101561079d578484038952815161077e8582610726565b945061078983610a02565b925060208a01995050600181019050610765565b50829750879550505050505092915050565b60006107ba826109f7565b6107c48185610a31565b93506107d4818560208601610a5b565b6107dd81610a8e565b840191505092915050565b60006107f3826109ec565b6107fd8185610a20565b935061080d818560208601610a5b565b61081681610a8e565b840191505092915050565b600061082e601483610a31565b91507f506f737420646f6573206e6f74206578697374210000000000000000000000006000830152602082019050919050565b600060608301600083015161087960008601826108b8565b506020830151848203602086015261089182826107e8565b915050604083015184820360408601526108ab82826107e8565b9150508091505092915050565b6108c181610a42565b82525050565b6108d081610a42565b82525050565b600060208201905081810360008301526108f0818461073a565b905092915050565b6000602082019050818103600083015261091181610821565b9050919050565b600060208201905061092d60008301846108c7565b92915050565b600060608201905061094860008301866108c7565b818103602083015261095a81856107af565b9050818103604083015261096e81846107af565b9050949350505050565b6000604051905081810181811067ffffffffffffffff8211171561099b57600080fd5b8060405250919050565b600067ffffffffffffffff8211156109bc57600080fd5b601f19601f8301169050602081019050919050565b6000819050602082019050919050565b600081519050919050565b600081519050919050565b600081519050919050565b6000602082019050919050565b600082825260208201905092915050565b600082825260208201905092915050565b600082825260208201905092915050565b6000819050919050565b82818337600083830152505050565b60005b83811015610a79578082015181840152602081019050610a5e565b83811115610a88576000848401525b50505050565b6000601f19601f8301169050919050565b610aa881610a42565b8114610ab357600080fd5b5056fea365627a7a72315820dd5a77d31d17a1bcbabf49ddf24b09dca3030e53bb104d5d22fc101b0a766acd6c6578706572696d656e74616cf564736f6c63430005100040",
  "source": "// SPDX-License-Identifier: MIT\npragma solidity ^0.5.0;\npragma experimental ABIEncoderV2;\n\ncontract Blog {\n  struct Post {\n    uint id;\n    string body;\n    string author;\n  }\n  Post[] private posts;\n  uint public nextId = 1;\n\n  function create(string memory body) public {\n    posts.push(Post(nextId, body, \"test\"));\n    nextId++;\n  }\n\n  function read(uint id) view public returns(uint, string memory, string memory) {\n    uint i = find(id);\n    return(posts[i].id, posts[i].body, posts[i].author);\n  }\n\n//   function destroy(uint id) public {\n//     uint i = find(id);\n//     delete users[i];\n//   }\n\n  function find(uint id) view internal returns(uint) {\n    for(uint i = 0; i < posts.length; i++) {\n      if(posts[i].id == id) {\n        return i;\n      }\n    }\n    revert('Post does not exist!');\n  }\n  \n  function list() view public returns(Post[] memory) {\n      return posts;\n  }\n}",
  "sourcePath": "/Users/non_thakon/Workspace/csag-smart-contract-talk/contracts/Blog.sol",
  "compiler": {
    "name": "solc",
    "version": "0.5.16+commit.9c3226ce.Emscripten.clang"
  },
  "schemaVersion": "3.2.4",
  "updatedAt": "2020-09-05T12:40:29.337Z",
  "devdoc": {
    "methods": {}
  },
  "userdoc": {
    "methods": {}
  }
}